{
  "_format": "hh-sol-artifact-1",
  "contractName": "GoldNFT",
  "sourceName": "contracts/GoldNFT.sol",
  "abi": [
    {
      "inputs": [
        {
          "internalType": "string",
          "name": "uri",
          "type": "string"
        },
        {
          "internalType": "bytes32",
          "name": "merkleroot",
          "type": "bytes32"
        },
        {
          "internalType": "address",
          "name": "_proxyRegistryAddress",
          "type": "address"
        }
      ],
      "stateMutability": "nonpayable",
      "type": "constructor"
    },
    {
      "anonymous": false,
      "inputs": [
        {
          "indexed": true,
          "internalType": "address",
          "name": "owner",
          "type": "address"
        },
        {
          "indexed": true,
          "internalType": "address",
          "name": "approved",
          "type": "address"
        },
        {
          "indexed": true,
          "internalType": "uint256",
          "name": "tokenId",
          "type": "uint256"
        }
      ],
      "name": "Approval",
      "type": "event"
    },
    {
      "anonymous": false,
      "inputs": [
        {
          "indexed": true,
          "internalType": "address",
          "name": "owner",
          "type": "address"
        },
        {
          "indexed": true,
          "internalType": "address",
          "name": "operator",
          "type": "address"
        },
        {
          "indexed": false,
          "internalType": "bool",
          "name": "approved",
          "type": "bool"
        }
      ],
      "name": "ApprovalForAll",
      "type": "event"
    },
    {
      "anonymous": false,
      "inputs": [
        {
          "indexed": true,
          "internalType": "contract IERC20",
          "name": "token",
          "type": "address"
        },
        {
          "indexed": false,
          "internalType": "address",
          "name": "to",
          "type": "address"
        },
        {
          "indexed": false,
          "internalType": "uint256",
          "name": "amount",
          "type": "uint256"
        }
      ],
      "name": "ERC20PaymentReleased",
      "type": "event"
    },
    {
      "anonymous": false,
      "inputs": [
        {
          "indexed": true,
          "internalType": "address",
          "name": "previousOwner",
          "type": "address"
        },
        {
          "indexed": true,
          "internalType": "address",
          "name": "newOwner",
          "type": "address"
        }
      ],
      "name": "OwnershipTransferred",
      "type": "event"
    },
    {
      "anonymous": false,
      "inputs": [
        {
          "indexed": false,
          "internalType": "address",
          "name": "account",
          "type": "address"
        },
        {
          "indexed": false,
          "internalType": "uint256",
          "name": "shares",
          "type": "uint256"
        }
      ],
      "name": "PayeeAdded",
      "type": "event"
    },
    {
      "anonymous": false,
      "inputs": [
        {
          "indexed": false,
          "internalType": "address",
          "name": "from",
          "type": "address"
        },
        {
          "indexed": false,
          "internalType": "uint256",
          "name": "amount",
          "type": "uint256"
        }
      ],
      "name": "PaymentReceived",
      "type": "event"
    },
    {
      "anonymous": false,
      "inputs": [
        {
          "indexed": false,
          "internalType": "address",
          "name": "to",
          "type": "address"
        },
        {
          "indexed": false,
          "internalType": "uint256",
          "name": "amount",
          "type": "uint256"
        }
      ],
      "name": "PaymentReleased",
      "type": "event"
    },
    {
      "anonymous": false,
      "inputs": [
        {
          "indexed": true,
          "internalType": "address",
          "name": "from",
          "type": "address"
        },
        {
          "indexed": true,
          "internalType": "address",
          "name": "to",
          "type": "address"
        },
        {
          "indexed": true,
          "internalType": "uint256",
          "name": "tokenId",
          "type": "uint256"
        }
      ],
      "name": "Transfer",
      "type": "event"
    },
    {
      "inputs": [
        {
          "internalType": "address",
          "name": "",
          "type": "address"
        }
      ],
      "name": "_presaleClaimed",
      "outputs": [
        {
          "internalType": "uint256",
          "name": "",
          "type": "uint256"
        }
      ],
      "stateMutability": "view",
      "type": "function"
    },
    {
      "inputs": [
        {
          "internalType": "address",
          "name": "to",
          "type": "address"
        },
        {
          "internalType": "uint256",
          "name": "tokenId",
          "type": "uint256"
        }
      ],
      "name": "approve",
      "outputs": [],
      "stateMutability": "nonpayable",
      "type": "function"
    },
    {
      "inputs": [
        {
          "internalType": "address",
          "name": "owner",
          "type": "address"
        }
      ],
      "name": "balanceOf",
      "outputs": [
        {
          "internalType": "uint256",
          "name": "",
          "type": "uint256"
        }
      ],
      "stateMutability": "view",
      "type": "function"
    },
    {
      "inputs": [],
      "name": "baseExtension",
      "outputs": [
        {
          "internalType": "string",
          "name": "",
          "type": "string"
        }
      ],
      "stateMutability": "view",
      "type": "function"
    },
    {
      "inputs": [],
      "name": "baseURI",
      "outputs": [
        {
          "internalType": "string",
          "name": "",
          "type": "string"
        }
      ],
      "stateMutability": "view",
      "type": "function"
    },
    {
      "inputs": [
        {
          "internalType": "uint256",
          "name": "tokenId",
          "type": "uint256"
        }
      ],
      "name": "getApproved",
      "outputs": [
        {
          "internalType": "address",
          "name": "",
          "type": "address"
        }
      ],
      "stateMutability": "view",
      "type": "function"
    },
    {
      "inputs": [
        {
          "internalType": "address",
          "name": "owner",
          "type": "address"
        },
        {
          "internalType": "address",
          "name": "operator",
          "type": "address"
        }
      ],
      "name": "isApprovedForAll",
      "outputs": [
        {
          "internalType": "bool",
          "name": "",
          "type": "bool"
        }
      ],
      "stateMutability": "view",
      "type": "function"
    },
    {
      "inputs": [],
      "name": "maxSupply",
      "outputs": [
        {
          "internalType": "uint256",
          "name": "",
          "type": "uint256"
        }
      ],
      "stateMutability": "view",
      "type": "function"
    },
    {
      "inputs": [],
      "name": "name",
      "outputs": [
        {
          "internalType": "string",
          "name": "",
          "type": "string"
        }
      ],
      "stateMutability": "view",
      "type": "function"
    },
    {
      "inputs": [],
      "name": "notRevealedUri",
      "outputs": [
        {
          "internalType": "string",
          "name": "",
          "type": "string"
        }
      ],
      "stateMutability": "view",
      "type": "function"
    },
    {
      "inputs": [],
      "name": "owner",
      "outputs": [
        {
          "internalType": "address",
          "name": "",
          "type": "address"
        }
      ],
      "stateMutability": "view",
      "type": "function"
    },
    {
      "inputs": [
        {
          "internalType": "uint256",
          "name": "tokenId",
          "type": "uint256"
        }
      ],
      "name": "ownerOf",
      "outputs": [
        {
          "internalType": "address",
          "name": "",
          "type": "address"
        }
      ],
      "stateMutability": "view",
      "type": "function"
    },
    {
      "inputs": [],
      "name": "paused",
      "outputs": [
        {
          "internalType": "bool",
          "name": "",
          "type": "bool"
        }
      ],
      "stateMutability": "view",
      "type": "function"
    },
    {
      "inputs": [
        {
          "internalType": "uint256",
          "name": "index",
          "type": "uint256"
        }
      ],
      "name": "payee",
      "outputs": [
        {
          "internalType": "address",
          "name": "",
          "type": "address"
        }
      ],
      "stateMutability": "view",
      "type": "function"
    },
    {
      "inputs": [],
      "name": "presaleM",
      "outputs": [
        {
          "internalType": "bool",
          "name": "",
          "type": "bool"
        }
      ],
      "stateMutability": "view",
      "type": "function"
    },
    {
      "inputs": [
        {
          "internalType": "address",
          "name": "account",
          "type": "address"
        },
        {
          "internalType": "uint256",
          "name": "_amount",
          "type": "uint256"
        },
        {
          "internalType": "bytes32[]",
          "name": "_proof",
          "type": "bytes32[]"
        }
      ],
      "name": "presaleMint",
      "outputs": [],
      "stateMutability": "payable",
      "type": "function"
    },
    {
      "inputs": [],
      "name": "publicM",
      "outputs": [
        {
          "internalType": "bool",
          "name": "",
          "type": "bool"
        }
      ],
      "stateMutability": "view",
      "type": "function"
    },
    {
      "inputs": [
        {
          "internalType": "uint256",
          "name": "_amount",
          "type": "uint256"
        }
      ],
      "name": "publicSaleMint",
      "outputs": [],
      "stateMutability": "payable",
      "type": "function"
    },
    {
      "inputs": [
        {
          "internalType": "address",
          "name": "account",
          "type": "address"
        }
      ],
      "name": "releasable",
      "outputs": [
        {
          "internalType": "uint256",
          "name": "",
          "type": "uint256"
        }
      ],
      "stateMutability": "view",
      "type": "function"
    },
    {
      "inputs": [
        {
          "internalType": "contract IERC20",
          "name": "token",
          "type": "address"
        },
        {
          "internalType": "address",
          "name": "account",
          "type": "address"
        }
      ],
      "name": "releasable",
      "outputs": [
        {
          "internalType": "uint256",
          "name": "",
          "type": "uint256"
        }
      ],
      "stateMutability": "view",
      "type": "function"
    },
    {
      "inputs": [
        {
          "internalType": "address payable",
          "name": "account",
          "type": "address"
        }
      ],
      "name": "release",
      "outputs": [],
      "stateMutability": "nonpayable",
      "type": "function"
    },
    {
      "inputs": [
        {
          "internalType": "contract IERC20",
          "name": "token",
          "type": "address"
        },
        {
          "internalType": "address",
          "name": "account",
          "type": "address"
        }
      ],
      "name": "release",
      "outputs": [],
      "stateMutability": "nonpayable",
      "type": "function"
    },
    {
      "inputs": [
        {
          "internalType": "contract IERC20",
          "name": "token",
          "type": "address"
        },
        {
          "internalType": "address",
          "name": "account",
          "type": "address"
        }
      ],
      "name": "released",
      "outputs": [
        {
          "internalType": "uint256",
          "name": "",
          "type": "uint256"
        }
      ],
      "stateMutability": "view",
      "type": "function"
    },
    {
      "inputs": [
        {
          "internalType": "address",
          "name": "account",
          "type": "address"
        }
      ],
      "name": "released",
      "outputs": [
        {
          "internalType": "uint256",
          "name": "",
          "type": "uint256"
        }
      ],
      "stateMutability": "view",
      "type": "function"
    },
    {
      "inputs": [],
      "name": "renounceOwnership",
      "outputs": [],
      "stateMutability": "nonpayable",
      "type": "function"
    },
    {
      "inputs": [],
      "name": "reveal",
      "outputs": [],
      "stateMutability": "nonpayable",
      "type": "function"
    },
    {
      "inputs": [],
      "name": "revealed",
      "outputs": [
        {
          "internalType": "bool",
          "name": "",
          "type": "bool"
        }
      ],
      "stateMutability": "view",
      "type": "function"
    },
    {
      "inputs": [],
      "name": "root",
      "outputs": [
        {
          "internalType": "bytes32",
          "name": "",
          "type": "bytes32"
        }
      ],
      "stateMutability": "view",
      "type": "function"
    },
    {
      "inputs": [
        {
          "internalType": "address",
          "name": "from",
          "type": "address"
        },
        {
          "internalType": "address",
          "name": "to",
          "type": "address"
        },
        {
          "internalType": "uint256",
          "name": "tokenId",
          "type": "uint256"
        }
      ],
      "name": "safeTransferFrom",
      "outputs": [],
      "stateMutability": "nonpayable",
      "type": "function"
    },
    {
      "inputs": [
        {
          "internalType": "address",
          "name": "from",
          "type": "address"
        },
        {
          "internalType": "address",
          "name": "to",
          "type": "address"
        },
        {
          "internalType": "uint256",
          "name": "tokenId",
          "type": "uint256"
        },
        {
          "internalType": "bytes",
          "name": "data",
          "type": "bytes"
        }
      ],
      "name": "safeTransferFrom",
      "outputs": [],
      "stateMutability": "nonpayable",
      "type": "function"
    },
    {
      "inputs": [
        {
          "internalType": "address",
          "name": "operator",
          "type": "address"
        },
        {
          "internalType": "bool",
          "name": "approved",
          "type": "bool"
        }
      ],
      "name": "setApprovalForAll",
      "outputs": [],
      "stateMutability": "nonpayable",
      "type": "function"
    },
    {
      "inputs": [
        {
          "internalType": "string",
          "name": "_newBaseExtension",
          "type": "string"
        }
      ],
      "name": "setBaseExtension",
      "outputs": [],
      "stateMutability": "nonpayable",
      "type": "function"
    },
    {
      "inputs": [
        {
          "internalType": "string",
          "name": "_tokenBaseURI",
          "type": "string"
        }
      ],
      "name": "setBaseURI",
      "outputs": [],
      "stateMutability": "nonpayable",
      "type": "function"
    },
    {
      "inputs": [
        {
          "internalType": "bytes32",
          "name": "merkleroot",
          "type": "bytes32"
        }
      ],
      "name": "setMerkleRoot",
      "outputs": [],
      "stateMutability": "nonpayable",
      "type": "function"
    },
    {
      "inputs": [
        {
          "internalType": "string",
          "name": "_notRevealedURI",
          "type": "string"
        }
      ],
      "name": "setNotRevealedURI",
      "outputs": [],
      "stateMutability": "nonpayable",
      "type": "function"
    },
    {
      "inputs": [
        {
          "internalType": "address",
          "name": "account",
          "type": "address"
        }
      ],
      "name": "shares",
      "outputs": [
        {
          "internalType": "uint256",
          "name": "",
          "type": "uint256"
        }
      ],
      "stateMutability": "view",
      "type": "function"
    },
    {
      "inputs": [
        {
          "internalType": "bytes4",
          "name": "interfaceId",
          "type": "bytes4"
        }
      ],
      "name": "supportsInterface",
      "outputs": [
        {
          "internalType": "bool",
          "name": "",
          "type": "bool"
        }
      ],
      "stateMutability": "view",
      "type": "function"
    },
    {
      "inputs": [],
      "name": "symbol",
      "outputs": [
        {
          "internalType": "string",
          "name": "",
          "type": "string"
        }
      ],
      "stateMutability": "view",
      "type": "function"
    },
    {
      "inputs": [],
      "name": "togglePause",
      "outputs": [],
      "stateMutability": "nonpayable",
      "type": "function"
    },
    {
      "inputs": [],
      "name": "togglePresale",
      "outputs": [],
      "stateMutability": "nonpayable",
      "type": "function"
    },
    {
      "inputs": [],
      "name": "togglePublicSale",
      "outputs": [],
      "stateMutability": "nonpayable",
      "type": "function"
    },
    {
      "inputs": [
        {
          "internalType": "uint256",
          "name": "tokenId",
          "type": "uint256"
        }
      ],
      "name": "tokenURI",
      "outputs": [
        {
          "internalType": "string",
          "name": "",
          "type": "string"
        }
      ],
      "stateMutability": "view",
      "type": "function"
    },
    {
      "inputs": [
        {
          "internalType": "contract IERC20",
          "name": "token",
          "type": "address"
        }
      ],
      "name": "totalReleased",
      "outputs": [
        {
          "internalType": "uint256",
          "name": "",
          "type": "uint256"
        }
      ],
      "stateMutability": "view",
      "type": "function"
    },
    {
      "inputs": [],
      "name": "totalReleased",
      "outputs": [
        {
          "internalType": "uint256",
          "name": "",
          "type": "uint256"
        }
      ],
      "stateMutability": "view",
      "type": "function"
    },
    {
      "inputs": [],
      "name": "totalShares",
      "outputs": [
        {
          "internalType": "uint256",
          "name": "",
          "type": "uint256"
        }
      ],
      "stateMutability": "view",
      "type": "function"
    },
    {
      "inputs": [],
      "name": "totalSupply",
      "outputs": [
        {
          "internalType": "uint256",
          "name": "",
          "type": "uint256"
        }
      ],
      "stateMutability": "view",
      "type": "function"
    },
    {
      "inputs": [
        {
          "internalType": "address",
          "name": "from",
          "type": "address"
        },
        {
          "internalType": "address",
          "name": "to",
          "type": "address"
        },
        {
          "internalType": "uint256",
          "name": "tokenId",
          "type": "uint256"
        }
      ],
      "name": "transferFrom",
      "outputs": [],
      "stateMutability": "nonpayable",
      "type": "function"
    },
    {
      "inputs": [
        {
          "internalType": "address",
          "name": "newOwner",
          "type": "address"
        }
      ],
      "name": "transferOwnership",
      "outputs": [],
      "stateMutability": "nonpayable",
      "type": "function"
    },
    {
      "stateMutability": "payable",
      "type": "receive"
    }
  ],
  "bytecode": "0x620186a0601155610100604052604160808181529062003a6260a0396013906200002a9082620007fa565b50604080518082019091526005815264173539b7b760d91b6020820152601490620000569082620007fa565b506015805463ffffffff191690556103e8601655678ac7230489e80000601855604080516060810182526014815260286020820181905291810191909152620000a490601a90600362000691565b50604080516060810182527332943d8edadd1f202e17115ef977c9afcc464c0e81527357091a8c57b8058fe28aa76e95423e0b0fdd500b602082015273042876217e6305908cb9aee035731e1859833327918101919091526200010c90601b906003620006e6565b503480156200011a57600080fd5b5060405162003aa338038062003aa38339810160408190526200013d91620008e3565b601b8054806020026020016040519081016040528092919081815260200182805480156200019557602002820191906000526020600020905b81546001600160a01b0316815260019091019060200180831162000176575b5050505050601a805480602002602001604051908101604052809291908181526020018280548015620001e857602002820191906000526020600020905b815481526020019060010190808311620001d3575b50505050506040518060400160405280600781526020016611dbdb1913919560ca1b815250604051806040016040528060038152602001622223a760e91b81525081600090816200023a9190620007fa565b506001620002498282620007fa565b5050506200026662000260620003d360201b60201c565b620003d7565b60016007558051825114620002dd5760405162461bcd60e51b815260206004820152603260248201527f5061796d656e7453706c69747465723a2070617965657320616e6420736861726044820152710cae640d8cadccee8d040dad2e6dac2e8c6d60731b60648201526084015b60405180910390fd5b6000825111620003305760405162461bcd60e51b815260206004820152601a60248201527f5061796d656e7453706c69747465723a206e6f207061796565730000000000006044820152606401620002d4565b60005b82518110156200039c5762000387838281518110620003565762000356620009d4565b6020026020010151838381518110620003735762000373620009d4565b60200260200101516200042960201b60201c565b80620003938162000a00565b91505062000333565b505050600f829055601080546001600160a01b0319166001600160a01b038316179055620003ca8362000617565b50505062000a38565b3390565b600680546001600160a01b038381166001600160a01b0319831681179093556040519116919082907f8be0079c531659141344cd1fd0a4f28419497f9722a3daafe3b4186f6b6457e090600090a35050565b6001600160a01b038216620004965760405162461bcd60e51b815260206004820152602c60248201527f5061796d656e7453706c69747465723a206163636f756e74206973207468652060448201526b7a65726f206164647265737360a01b6064820152608401620002d4565b60008111620004e85760405162461bcd60e51b815260206004820152601d60248201527f5061796d656e7453706c69747465723a207368617265732061726520300000006044820152606401620002d4565b6001600160a01b0382166000908152600a602052604090205415620005645760405162461bcd60e51b815260206004820152602b60248201527f5061796d656e7453706c69747465723a206163636f756e7420616c726561647960448201526a206861732073686172657360a81b6064820152608401620002d4565b600c8054600181019091557fdf6966c971051c3d54ec59162606531493a51404a002842f56009d7e5cf4a8c70180546001600160a01b0319166001600160a01b0384169081179091556000908152600a60205260409020819055600854620005ce90829062000a1c565b600855604080516001600160a01b0384168152602081018390527f40c340f65e17194d14ddddb073d3c9f888e3cb52b5aae0c6c7706b4fbc905fac910160405180910390a15050565b6200062162000633565b60126200062f8282620007fa565b5050565b6006546001600160a01b031633146200068f5760405162461bcd60e51b815260206004820181905260248201527f4f776e61626c653a2063616c6c6572206973206e6f7420746865206f776e65726044820152606401620002d4565b565b828054828255906000526020600020908101928215620006d4579160200282015b82811115620006d4578251829060ff16905591602001919060010190620006b2565b50620006e29291506200073e565b5090565b828054828255906000526020600020908101928215620006d4579160200282015b82811115620006d457825182546001600160a01b0319166001600160a01b0390911617825560209092019160019091019062000707565b5b80821115620006e257600081556001016200073f565b634e487b7160e01b600052604160045260246000fd5b600181811c908216806200078057607f821691505b602082108103620007a157634e487b7160e01b600052602260045260246000fd5b50919050565b601f821115620007f557600081815260208120601f850160051c81016020861015620007d05750805b601f850160051c820191505b81811015620007f157828155600101620007dc565b5050505b505050565b81516001600160401b0381111562000816576200081662000755565b6200082e816200082784546200076b565b84620007a7565b602080601f8311600181146200086657600084156200084d5750858301515b600019600386901b1c1916600185901b178555620007f1565b600085815260208120601f198616915b82811015620008975788860151825594840194600190910190840162000876565b5085821015620008b65787850151600019600388901b60f8161c191681555b5050505050600190811b01905550565b80516001600160a01b0381168114620008de57600080fd5b919050565b600080600060608486031215620008f957600080fd5b83516001600160401b03808211156200091157600080fd5b818601915086601f8301126200092657600080fd5b8151818111156200093b576200093b62000755565b604051601f8201601f19908116603f0116810190838211818310171562000966576200096662000755565b816040528281526020935089848487010111156200098357600080fd5b600091505b82821015620009a7578482018401518183018501529083019062000988565b60008484830101528097505050508086015193505050620009cb60408501620008c6565b90509250925092565b634e487b7160e01b600052603260045260246000fd5b634e487b7160e01b600052601160045260246000fd5b60006001820162000a155762000a15620009ea565b5060010190565b8082018082111562000a325762000a32620009ea565b92915050565b61301a8062000a486000396000f3fe6080604052600436106102975760003560e01c80638da5cb5b1161015a578063c6682862116100c1578063e222c7f91161007a578063e222c7f91461083f578063e33b7de314610854578063e985e9c514610869578063ebf0c71714610889578063f2c4ce1e1461089f578063f2fde38b146108bf57600080fd5b8063c668286214610768578063c87b56dd1461077d578063ce7c2ac21461079d578063d5abeb01146107d3578063d79779b2146107e9578063da3ef23f1461081f57600080fd5b8063a45063c011610113578063a45063c0146106ca578063a475b5dd146106eb578063b3ab66b014610700578063b88d4fde14610713578063c45ac05014610733578063c4ae31681461075357600080fd5b80638da5cb5b1461060e578063954dc3e31461062c57806395d89b411461063f5780639852595c14610654578063a22cb4651461068a578063a3f8eace146106aa57600080fd5b806342842e0e116101fe5780636c0360eb116101b75780636c0360eb1461055757806370a082311461056c578063715018a61461058c5780637cb64759146105a15780638b83209b146105c15780638cc4de19146105e157600080fd5b806342842e0e1461049e57806348b75044146104be57806351830227146104de57806355f804b3146104fd5780635c975abb1461051d5780636352211e1461053757600080fd5b806318160ddd1161025057806318160ddd146103cb57806319165587146103ee57806323b872dd1461040e578063343937431461042e5780633a98ef3914610443578063406072a91461045857600080fd5b806301ffc9a7146102e557806306fdde031461031a578063081812fc1461033c578063081c8c4414610374578063095ea7b3146103895780631798d58b146103ab57600080fd5b366102e0577f6ef95f06320e7a25a04a175ca677b7052bdd97131872c2192525a629f51be77033604080516001600160a01b0390921682523460208301520160405180910390a1005b600080fd5b3480156102f157600080fd5b506103056103003660046126d0565b6108df565b60405190151581526020015b60405180910390f35b34801561032657600080fd5b5061032f610931565b604051610311919061273d565b34801561034857600080fd5b5061035c610357366004612750565b6109c3565b6040516001600160a01b039091168152602001610311565b34801561038057600080fd5b5061032f6109ea565b34801561039557600080fd5b506103a96103a436600461277e565b610a78565b005b3480156103b757600080fd5b506015546103059062010000900460ff1681565b3480156103d757600080fd5b506103e0610b92565b604051908152602001610311565b3480156103fa57600080fd5b506103a96104093660046127aa565b610ba2565b34801561041a57600080fd5b506103a96104293660046127c7565b610c89565b34801561043a57600080fd5b506103a9610cba565b34801561044f57600080fd5b506008546103e0565b34801561046457600080fd5b506103e0610473366004612808565b6001600160a01b039182166000908152600e6020908152604080832093909416825291909152205490565b3480156104aa57600080fd5b506103a96104b93660046127c7565b610ce1565b3480156104ca57600080fd5b506103a96104d9366004612808565b610cfc565b3480156104ea57600080fd5b5060155461030590610100900460ff1681565b34801561050957600080fd5b506103a96105183660046128cd565b610e0d565b34801561052957600080fd5b506015546103059060ff1681565b34801561054357600080fd5b5061035c610552366004612750565b610e25565b34801561056357600080fd5b5061032f610e85565b34801561057857600080fd5b506103e06105873660046127aa565b610e92565b34801561059857600080fd5b506103a9610f18565b3480156105ad57600080fd5b506103a96105bc366004612750565b610f2c565b3480156105cd57600080fd5b5061035c6105dc366004612750565b610f39565b3480156105ed57600080fd5b506103e06105fc3660046127aa565b60176020526000908152604090205481565b34801561061a57600080fd5b506006546001600160a01b031661035c565b6103a961063a366004612916565b610f69565b34801561064b57600080fd5b5061032f611275565b34801561066057600080fd5b506103e061066f3660046127aa565b6001600160a01b03166000908152600b602052604090205490565b34801561069657600080fd5b506103a96106a53660046129b0565b611284565b3480156106b657600080fd5b506103e06106c53660046127aa565b61128f565b3480156106d657600080fd5b50601554610305906301000000900460ff1681565b3480156106f757600080fd5b506103a96112d7565b6103a961070e366004612750565b6112f0565b34801561071f57600080fd5b506103a961072e3660046129de565b6114d0565b34801561073f57600080fd5b506103e061074e366004612808565b611508565b34801561075f57600080fd5b506103a96115d3565b34801561077457600080fd5b5061032f6115ef565b34801561078957600080fd5b5061032f610798366004612750565b6115fc565b3480156107a957600080fd5b506103e06107b83660046127aa565b6001600160a01b03166000908152600a602052604090205490565b3480156107df57600080fd5b506103e060115481565b3480156107f557600080fd5b506103e06108043660046127aa565b6001600160a01b03166000908152600d602052604090205490565b34801561082b57600080fd5b506103a961083a3660046128cd565b61177f565b34801561084b57600080fd5b506103a9611793565b34801561086057600080fd5b506009546103e0565b34801561087557600080fd5b50610305610884366004612808565b6117bc565b34801561089557600080fd5b506103e0600f5481565b3480156108ab57600080fd5b506103a96108ba3660046128cd565b611878565b3480156108cb57600080fd5b506103a96108da3660046127aa565b61188c565b60006001600160e01b031982166380ac58cd60e01b148061091057506001600160e01b03198216635b5e139f60e01b145b8061092b57506301ffc9a760e01b6001600160e01b03198316145b92915050565b60606000805461094090612a5e565b80601f016020809104026020016040519081016040528092919081815260200182805461096c90612a5e565b80156109b95780601f1061098e576101008083540402835291602001916109b9565b820191906000526020600020905b81548152906001019060200180831161099c57829003601f168201915b5050505050905090565b60006109ce82611905565b506000908152600460205260409020546001600160a01b031690565b601380546109f790612a5e565b80601f0160208091040260200160405190810160405280929190818152602001828054610a2390612a5e565b8015610a705780601f10610a4557610100808354040283529160200191610a70565b820191906000526020600020905b815481529060010190602001808311610a5357829003601f168201915b505050505081565b6000610a8382610e25565b9050806001600160a01b0316836001600160a01b031603610af55760405162461bcd60e51b815260206004820152602160248201527f4552433732313a20617070726f76616c20746f2063757272656e74206f776e656044820152603960f91b60648201526084015b60405180910390fd5b336001600160a01b0382161480610b115750610b1181336117bc565b610b835760405162461bcd60e51b815260206004820152603d60248201527f4552433732313a20617070726f76652063616c6c6572206973206e6f7420746f60448201527f6b656e206f776e6572206f7220617070726f76656420666f7220616c6c0000006064820152608401610aec565b610b8d8383611964565b505050565b6000610b9d60195490565b905090565b6001600160a01b0381166000908152600a6020526040902054610bd75760405162461bcd60e51b8152600401610aec90612a98565b6000610be28261128f565b905080600003610c045760405162461bcd60e51b8152600401610aec90612ade565b8060096000828254610c169190612b3f565b90915550506001600160a01b0382166000908152600b60205260409020805482019055610c4382826119d2565b604080516001600160a01b0384168152602081018390527fdf20fd1e76bc69d672e4814fafb2c449bba3a5369d8359adf9e05e6fde87b056910160405180910390a15050565b610c933382611aeb565b610caf5760405162461bcd60e51b8152600401610aec90612b52565b610b8d838383611b49565b610cc2611cad565b6015805462ff0000198116620100009182900460ff1615909102179055565b610b8d838383604051806020016040528060008152506114d0565b6001600160a01b0381166000908152600a6020526040902054610d315760405162461bcd60e51b8152600401610aec90612a98565b6000610d3d8383611508565b905080600003610d5f5760405162461bcd60e51b8152600401610aec90612ade565b6001600160a01b0383166000908152600d602052604081208054839290610d87908490612b3f565b90915550506001600160a01b038084166000908152600e60209081526040808320938616835292905220805482019055610dc2838383611d07565b604080516001600160a01b038481168252602082018490528516917f3be5b7a71e84ed12875d241991c70855ac5817d847039e17a9d895c1ceb0f18a910160405180910390a2505050565b610e15611cad565b6012610e218282612bed565b5050565b6000818152600260205260408120546001600160a01b03168061092b5760405162461bcd60e51b8152602060048201526018602482015277115490cdcc8c4e881a5b9d985b1a59081d1bdad95b88125160421b6044820152606401610aec565b601280546109f790612a5e565b60006001600160a01b038216610efc5760405162461bcd60e51b815260206004820152602960248201527f4552433732313a2061646472657373207a65726f206973206e6f7420612076616044820152683634b21037bbb732b960b91b6064820152608401610aec565b506001600160a01b031660009081526003602052604090205490565b610f20611cad565b610f2a6000611d59565b565b610f34611cad565b600f55565b6000600c8281548110610f4e57610f4e612cad565b6000918252602090912001546001600160a01b031692915050565b8181610fe082828080602002602001604051908101604052809392919081815260200183836020028082843760009201919091525050600f546040516bffffffffffffffffffffffff193360601b166020820152909250603401905060405160208183030381529060405280519060200120611dab565b15156001146110015760405162461bcd60e51b8152600401610aec90612cc3565b3332146110205760405162461bcd60e51b8152600401610aec90612cc3565b336001600160a01b038716146110785760405162461bcd60e51b815260206004820152601960248201527f446e65726f476f6c644e66743a204e6f7420616c6c6f776564000000000000006044820152606401610aec565b60155462010000900460ff166110d05760405162461bcd60e51b815260206004820152601c60248201527f446e65726f476f6c644e66743a2050726573616c65206973204f4646000000006044820152606401610aec565b60155460ff16156111235760405162461bcd60e51b815260206004820181905260248201527f446e65726f476f6c644e66743a20436f6e7472616374206973207061757365646044820152606401610aec565b6016548511156111455760405162461bcd60e51b8152600401610aec90612cef565b60165433600090815260176020526040902054611163908790612b3f565b11156111815760405162461bcd60e51b8152600401610aec90612cef565b600061118c60195490565b60115490915061119c8783612b3f565b11156111f45760405162461bcd60e51b815260206004820152602160248201527f446e65726f476f6c644e66743a206d617820737570706c7920657863656564656044820152601960fa1b6064820152608401610aec565b34866018546112039190612d3a565b11156112215760405162461bcd60e51b8152600401610aec90612d51565b3360009081526017602052604081208054889290611240908490612b3f565b90915550600090505b8681101561126b57611259611dc1565b8061126381612d96565b915050611249565b5050505050505050565b60606001805461094090612a5e565b610e21338383611df9565b60008061129b60095490565b6112a59047612b3f565b90506112d083826112cb866001600160a01b03166000908152600b602052604090205490565b611ec7565b9392505050565b6112df611cad565b6015805461ff001916610100179055565b33321461130f5760405162461bcd60e51b8152600401610aec90612cc3565b6015546301000000900460ff166113685760405162461bcd60e51b815260206004820152601f60248201527f446e65726f476f6c644e66743a205075626c696353616c65206973204f4646006044820152606401610aec565b60155460ff16156113bb5760405162461bcd60e51b815260206004820181905260248201527f446e65726f476f6c644e66743a20436f6e7472616374206973207061757365646044820152606401610aec565b6000811161140b5760405162461bcd60e51b815260206004820152601960248201527f446e65726f476f6c644e66743a207a65726f20616d6f756e74000000000000006044820152606401610aec565b600061141660195490565b6011549091506114268383612b3f565b111561147e5760405162461bcd60e51b815260206004820152602160248201527f446e65726f476f6c644e66743a204d617820737570706c7920657863656564656044820152601960fa1b6064820152608401610aec565b348260185461148d9190612d3a565b11156114ab5760405162461bcd60e51b8152600401610aec90612d51565b60005b82811015610b8d576114be611dc1565b806114c881612d96565b9150506114ae565b6114da3383611aeb565b6114f65760405162461bcd60e51b8152600401610aec90612b52565b61150284848484611f05565b50505050565b6001600160a01b0382166000908152600d602052604081205481906040516370a0823160e01b81523060048201526001600160a01b038616906370a0823190602401602060405180830381865afa158015611567573d6000803e3d6000fd5b505050506040513d601f19601f8201168201806040525081019061158b9190612daf565b6115959190612b3f565b6001600160a01b038086166000908152600e60209081526040808320938816835292905220549091506115cb9084908390611ec7565b949350505050565b6115db611cad565b6015805460ff19811660ff90911615179055565b601480546109f790612a5e565b6000818152600260205260409020546060906001600160a01b031661167b5760405162461bcd60e51b815260206004820152602f60248201527f4552433732314d657461646174613a2055524920717565727920666f72206e6f60448201526e3732bc34b9ba32b73a103a37b5b2b760891b6064820152608401610aec565b601554610100900460ff161515600003611721576013805461169c90612a5e565b80601f01602080910402602001604051908101604052809291908181526020018280546116c890612a5e565b80156117155780601f106116ea57610100808354040283529160200191611715565b820191906000526020600020905b8154815290600101906020018083116116f857829003601f168201915b50505050509050919050565b600061172b611f38565b9050600081511161174b57604051806020016040528060008152506112d0565b8061175584611f47565b601460405160200161176993929190612dc8565b6040516020818303038152906040529392505050565b611787611cad565b6014610e218282612bed565b61179b611cad565b6015805463ff00000019811663010000009182900460ff1615909102179055565b60105460405163c455279160e01b81526001600160a01b03848116600483015260009281169190841690829063c455279190602401602060405180830381865afa15801561180e573d6000803e3d6000fd5b505050506040513d601f19601f820116820180604052508101906118329190612e68565b6001600160a01b03160361184a57600191505061092b565b6001600160a01b0380851660009081526005602090815260408083209387168352929052205460ff166115cb565b611880611cad565b6013610e218282612bed565b611894611cad565b6001600160a01b0381166118f95760405162461bcd60e51b815260206004820152602660248201527f4f776e61626c653a206e6577206f776e657220697320746865207a65726f206160448201526564647265737360d01b6064820152608401610aec565b61190281611d59565b50565b6000818152600260205260409020546001600160a01b03166119025760405162461bcd60e51b8152602060048201526018602482015277115490cdcc8c4e881a5b9d985b1a59081d1bdad95b88125160421b6044820152606401610aec565b600081815260046020526040902080546001600160a01b0319166001600160a01b038416908117909155819061199982610e25565b6001600160a01b03167f8c5be1e5ebec7d5bd14f71427d1e84f3dd0314c0f7b2291e5b200ac8c7c3b92560405160405180910390a45050565b80471015611a225760405162461bcd60e51b815260206004820152601d60248201527f416464726573733a20696e73756666696369656e742062616c616e63650000006044820152606401610aec565b6000826001600160a01b03168260405160006040518083038185875af1925050503d8060008114611a6f576040519150601f19603f3d011682016040523d82523d6000602084013e611a74565b606091505b5050905080610b8d5760405162461bcd60e51b815260206004820152603a60248201527f416464726573733a20756e61626c6520746f2073656e642076616c75652c207260448201527f6563697069656e74206d617920686176652072657665727465640000000000006064820152608401610aec565b600080611af783610e25565b9050806001600160a01b0316846001600160a01b03161480611b1e5750611b1e81856117bc565b806115cb5750836001600160a01b0316611b37846109c3565b6001600160a01b031614949350505050565b826001600160a01b0316611b5c82610e25565b6001600160a01b031614611b825760405162461bcd60e51b8152600401610aec90612e85565b6001600160a01b038216611be45760405162461bcd60e51b8152602060048201526024808201527f4552433732313a207472616e7366657220746f20746865207a65726f206164646044820152637265737360e01b6064820152608401610aec565b826001600160a01b0316611bf782610e25565b6001600160a01b031614611c1d5760405162461bcd60e51b8152600401610aec90612e85565b600081815260046020908152604080832080546001600160a01b03199081169091556001600160a01b0387811680865260038552838620805460001901905590871680865283862080546001019055868652600290945282852080549092168417909155905184937fddf252ad1be2c89b69c2b068fc378daa952ba7f163c4a11628f55a4df523b3ef91a4505050565b6006546001600160a01b03163314610f2a5760405162461bcd60e51b815260206004820181905260248201527f4f776e61626c653a2063616c6c6572206973206e6f7420746865206f776e65726044820152606401610aec565b604080516001600160a01b038416602482015260448082018490528251808303909101815260649091019091526020810180516001600160e01b031663a9059cbb60e01b179052610b8d908490611fda565b600680546001600160a01b038381166001600160a01b0319831681179093556040519116919082907f8be0079c531659141344cd1fd0a4f28419497f9722a3daafe3b4186f6b6457e090600090a35050565b600082611db885846120af565b14949350505050565b611dc96120fc565b611dd7601980546001019055565b6000611de260195490565b9050611dee3382612155565b50610f2a6001600755565b816001600160a01b0316836001600160a01b031603611e5a5760405162461bcd60e51b815260206004820152601960248201527f4552433732313a20617070726f766520746f2063616c6c6572000000000000006044820152606401610aec565b6001600160a01b03838116600081815260056020908152604080832094871680845294825291829020805460ff191686151590811790915591519182527f17307eab39ab6107e8899845ad3d59bd9653f200f220920489ca2b5937696c31910160405180910390a3505050565b6008546001600160a01b0384166000908152600a602052604081205490918391611ef19086612d3a565b611efb9190612eca565b6115cb9190612eec565b611f10848484611b49565b611f1c8484848461216f565b6115025760405162461bcd60e51b8152600401610aec90612eff565b60606012805461094090612a5e565b60606000611f5483612270565b600101905060008167ffffffffffffffff811115611f7457611f74612841565b6040519080825280601f01601f191660200182016040528015611f9e576020820181803683370190505b5090508181016020015b600019016f181899199a1a9b1b9c1cb0b131b232b360811b600a86061a8153600a8504945084611fa857509392505050565b600061202f826040518060400160405280602081526020017f5361666545524332303a206c6f772d6c6576656c2063616c6c206661696c6564815250856001600160a01b03166123489092919063ffffffff16565b90508051600014806120505750808060200190518101906120509190612f51565b610b8d5760405162461bcd60e51b815260206004820152602a60248201527f5361666545524332303a204552433230206f7065726174696f6e20646964206e6044820152691bdd081cdd58d8d9595960b21b6064820152608401610aec565b600081815b84518110156120f4576120e0828683815181106120d3576120d3612cad565b6020026020010151612357565b9150806120ec81612d96565b9150506120b4565b509392505050565b60026007540361214e5760405162461bcd60e51b815260206004820152601f60248201527f5265656e7472616e637947756172643a207265656e7472616e742063616c6c006044820152606401610aec565b6002600755565b610e21828260405180602001604052806000815250612383565b60006001600160a01b0384163b1561226557604051630a85bd0160e11b81526001600160a01b0385169063150b7a02906121b3903390899088908890600401612f6e565b6020604051808303816000875af19250505080156121ee575060408051601f3d908101601f191682019092526121eb91810190612fab565b60015b61224b573d80801561221c576040519150601f19603f3d011682016040523d82523d6000602084013e612221565b606091505b5080516000036122435760405162461bcd60e51b8152600401610aec90612eff565b805181602001fd5b6001600160e01b031916630a85bd0160e11b1490506115cb565b506001949350505050565b60008072184f03e93ff9f4daa797ed6e38ed64bf6a1f0160401b83106122af5772184f03e93ff9f4daa797ed6e38ed64bf6a1f0160401b830492506040015b6d04ee2d6d415b85acef810000000083106122db576d04ee2d6d415b85acef8100000000830492506020015b662386f26fc1000083106122f957662386f26fc10000830492506010015b6305f5e1008310612311576305f5e100830492506008015b612710831061232557612710830492506004015b60648310612337576064830492506002015b600a831061092b5760010192915050565b60606115cb84846000856123b6565b60008183106123735760008281526020849052604090206112d0565b5060009182526020526040902090565b61238d8383612491565b61239a600084848461216f565b610b8d5760405162461bcd60e51b8152600401610aec90612eff565b6060824710156124175760405162461bcd60e51b815260206004820152602660248201527f416464726573733a20696e73756666696369656e742062616c616e636520666f6044820152651c8818d85b1b60d21b6064820152608401610aec565b600080866001600160a01b031685876040516124339190612fc8565b60006040518083038185875af1925050503d8060008114612470576040519150601f19603f3d011682016040523d82523d6000602084013e612475565b606091505b50915091506124868783838761261c565b979650505050505050565b6001600160a01b0382166124e75760405162461bcd60e51b815260206004820181905260248201527f4552433732313a206d696e7420746f20746865207a65726f20616464726573736044820152606401610aec565b6000818152600260205260409020546001600160a01b03161561254c5760405162461bcd60e51b815260206004820152601c60248201527f4552433732313a20746f6b656e20616c7265616479206d696e746564000000006044820152606401610aec565b6000818152600260205260409020546001600160a01b0316156125b15760405162461bcd60e51b815260206004820152601c60248201527f4552433732313a20746f6b656e20616c7265616479206d696e746564000000006044820152606401610aec565b6001600160a01b038216600081815260036020908152604080832080546001019055848352600290915280822080546001600160a01b0319168417905551839291907fddf252ad1be2c89b69c2b068fc378daa952ba7f163c4a11628f55a4df523b3ef908290a45050565b6060831561268b578251600003612684576001600160a01b0385163b6126845760405162461bcd60e51b815260206004820152601d60248201527f416464726573733a2063616c6c20746f206e6f6e2d636f6e74726163740000006044820152606401610aec565b50816115cb565b6115cb83838151156126a05781518083602001fd5b8060405162461bcd60e51b8152600401610aec919061273d565b6001600160e01b03198116811461190257600080fd5b6000602082840312156126e257600080fd5b81356112d0816126ba565b60005b838110156127085781810151838201526020016126f0565b50506000910152565b600081518084526127298160208601602086016126ed565b601f01601f19169290920160200192915050565b6020815260006112d06020830184612711565b60006020828403121561276257600080fd5b5035919050565b6001600160a01b038116811461190257600080fd5b6000806040838503121561279157600080fd5b823561279c81612769565b946020939093013593505050565b6000602082840312156127bc57600080fd5b81356112d081612769565b6000806000606084860312156127dc57600080fd5b83356127e781612769565b925060208401356127f781612769565b929592945050506040919091013590565b6000806040838503121561281b57600080fd5b823561282681612769565b9150602083013561283681612769565b809150509250929050565b634e487b7160e01b600052604160045260246000fd5b600067ffffffffffffffff8084111561287257612872612841565b604051601f8501601f19908116603f0116810190828211818310171561289a5761289a612841565b816040528093508581528686860111156128b357600080fd5b858560208301376000602087830101525050509392505050565b6000602082840312156128df57600080fd5b813567ffffffffffffffff8111156128f657600080fd5b8201601f8101841361290757600080fd5b6115cb84823560208401612857565b6000806000806060858703121561292c57600080fd5b843561293781612769565b935060208501359250604085013567ffffffffffffffff8082111561295b57600080fd5b818701915087601f83011261296f57600080fd5b81358181111561297e57600080fd5b8860208260051b850101111561299357600080fd5b95989497505060200194505050565b801515811461190257600080fd5b600080604083850312156129c357600080fd5b82356129ce81612769565b91506020830135612836816129a2565b600080600080608085870312156129f457600080fd5b84356129ff81612769565b93506020850135612a0f81612769565b925060408501359150606085013567ffffffffffffffff811115612a3257600080fd5b8501601f81018713612a4357600080fd5b612a5287823560208401612857565b91505092959194509250565b600181811c90821680612a7257607f821691505b602082108103612a9257634e487b7160e01b600052602260045260246000fd5b50919050565b60208082526026908201527f5061796d656e7453706c69747465723a206163636f756e7420686173206e6f2060408201526573686172657360d01b606082015260800190565b6020808252602b908201527f5061796d656e7453706c69747465723a206163636f756e74206973206e6f742060408201526a191d59481c185e5b595b9d60aa1b606082015260800190565b634e487b7160e01b600052601160045260246000fd5b8082018082111561092b5761092b612b29565b6020808252602d908201527f4552433732313a2063616c6c6572206973206e6f7420746f6b656e206f776e6560408201526c1c881bdc88185c1c1c9bdd9959609a1b606082015260800190565b601f821115610b8d57600081815260208120601f850160051c81016020861015612bc65750805b601f850160051c820191505b81811015612be557828155600101612bd2565b505050505050565b815167ffffffffffffffff811115612c0757612c07612841565b612c1b81612c158454612a5e565b84612b9f565b602080601f831160018114612c505760008415612c385750858301515b600019600386901b1c1916600185901b178555612be5565b600085815260208120601f198616915b82811015612c7f57888601518255948401946001909101908401612c60565b5085821015612c9d5787850151600019600388901b60f8161c191681555b5050505050600190811b01905550565b634e487b7160e01b600052603260045260246000fd5b6020808252601290820152712737ba1030b63637bbb2b21037b934b3b4b760711b604082015260600190565b6020808252602b908201527f446e65726f476f6c644e66743a20596f752063616e2774206d696e7420736f2060408201526a6d75636820746f6b656e7360a81b606082015260800190565b808202811582820484141761092b5761092b612b29565b60208082526025908201527f446e65726f476f6c644e66743a204e6f7420656e6f7567682064746f6b656e73604082015264081cd95b9d60da1b606082015260800190565b600060018201612da857612da8612b29565b5060010190565b600060208284031215612dc157600080fd5b5051919050565b600084516020612ddb8285838a016126ed565b855191840191612dee8184848a016126ed565b8554920191600090612dff81612a5e565b60018281168015612e175760018114612e2c57612e58565b60ff1984168752821515830287019450612e58565b896000528560002060005b84811015612e5057815489820152908301908701612e37565b505082870194505b50929a9950505050505050505050565b600060208284031215612e7a57600080fd5b81516112d081612769565b60208082526025908201527f4552433732313a207472616e736665722066726f6d20696e636f72726563742060408201526437bbb732b960d91b606082015260800190565b600082612ee757634e487b7160e01b600052601260045260246000fd5b500490565b8181038181111561092b5761092b612b29565b60208082526032908201527f4552433732313a207472616e7366657220746f206e6f6e20455243373231526560408201527131b2b4bb32b91034b6b83632b6b2b73a32b960711b606082015260800190565b600060208284031215612f6357600080fd5b81516112d0816129a2565b6001600160a01b0385811682528416602082015260408101839052608060608201819052600090612fa190830184612711565b9695505050505050565b600060208284031215612fbd57600080fd5b81516112d0816126ba565b60008251612fda8184602087016126ed565b919091019291505056fea2646970667358221220440e0fc34ead39ed2092e46e39646ea4efdc3eb6ddb231668422c5ec390e94d264736f6c63430008130033697066733a2f2f516d595575774c6f69526238776f58774a434373723167766272384532314b757852746d56426d6e4831745a7a372f68696464656e2e6a736f6e",
  "linkReferences": {},
  "deployedLinkReferences": {}
}